{
	"new workspace/FundMe.sol": {
		"FundMe": {
			"abi": [
				{
					"inputs": [],
					"name": "fund",
					"outputs": [],
					"stateMutability": "payable",
					"type": "function"
				},
				{
					"inputs": [],
					"name": "getPrice",
					"outputs": [
						{
							"internalType": "uint256",
							"name": "",
							"type": "uint256"
						}
					],
					"stateMutability": "view",
					"type": "function"
				},
				{
					"inputs": [],
					"name": "getVersion",
					"outputs": [
						{
							"internalType": "uint256",
							"name": "",
							"type": "uint256"
						}
					],
					"stateMutability": "view",
					"type": "function"
				},
				{
					"inputs": [
						{
							"internalType": "uint256",
							"name": "ethAmount",
							"type": "uint256"
						}
					],
					"name": "getconversionRate",
					"outputs": [
						{
							"internalType": "uint256",
							"name": "",
							"type": "uint256"
						}
					],
					"stateMutability": "view",
					"type": "function"
				},
				{
					"inputs": [],
					"name": "minimumUsd",
					"outputs": [
						{
							"internalType": "uint256",
							"name": "",
							"type": "uint256"
						}
					],
					"stateMutability": "view",
					"type": "function"
				}
			],
			"devdoc": {
				"kind": "dev",
				"methods": {},
				"version": 1
			},
			"evm": {
				"assembly": "    /* \"new workspace/FundMe.sol\":961:1975  contract FundMe {... */\n  mstore(0x40, 0x80)\n    /* \"new workspace/FundMe.sol\":1014:1018  5e18 */\n  0x4563918244f40000\n    /* \"new workspace/FundMe.sol\":986:1018  uint256 public minimumUsd = 5e18 */\n  0x00\n  sstore\n    /* \"new workspace/FundMe.sol\":961:1975  contract FundMe {... */\n  callvalue\n  dup1\n  iszero\n  tag_1\n  jumpi\n  0x00\n  dup1\n  revert\ntag_1:\n  pop\n  dataSize(sub_0)\n  dup1\n  dataOffset(sub_0)\n  0x00\n  codecopy\n  0x00\n  return\nstop\n\nsub_0: assembly {\n        /* \"new workspace/FundMe.sol\":961:1975  contract FundMe {... */\n      mstore(0x40, 0x80)\n      jumpi(tag_1, lt(calldatasize, 0x04))\n      shr(0xe0, calldataload(0x00))\n      dup1\n      0x098de820\n      eq\n      tag_2\n      jumpi\n      dup1\n      0x0d8e6e2c\n      eq\n      tag_3\n      jumpi\n      dup1\n      0x98d5fdca\n      eq\n      tag_4\n      jumpi\n      dup1\n      0xb60d4288\n      eq\n      tag_5\n      jumpi\n      dup1\n      0xbf4c21eb\n      eq\n      tag_6\n      jumpi\n    tag_1:\n      0x00\n      dup1\n      revert\n        /* \"new workspace/FundMe.sol\":986:1018  uint256 public minimumUsd = 5e18 */\n    tag_2:\n      callvalue\n      dup1\n      iszero\n      tag_7\n      jumpi\n      0x00\n      dup1\n      revert\n    tag_7:\n      pop\n      tag_8\n      tag_9\n      jump\t// in\n    tag_8:\n      mload(0x40)\n      tag_10\n      swap2\n      swap1\n      tag_11\n      jump\t// in\n    tag_10:\n      mload(0x40)\n      dup1\n      swap2\n      sub\n      swap1\n      return\n        /* \"new workspace/FundMe.sol\":1819:1972  function getVersion() public view returns (uint256) {... */\n    tag_3:\n      callvalue\n      dup1\n      iszero\n      tag_12\n      jumpi\n      0x00\n      dup1\n      revert\n    tag_12:\n      pop\n      tag_13\n      tag_14\n      jump\t// in\n    tag_13:\n      mload(0x40)\n      tag_15\n      swap2\n      swap1\n      tag_11\n      jump\t// in\n    tag_15:\n      mload(0x40)\n      dup1\n      swap2\n      sub\n      swap1\n      return\n        /* \"new workspace/FundMe.sol\":1200:1584  function getPrice() public view returns(uint256){... */\n    tag_4:\n      callvalue\n      dup1\n      iszero\n      tag_16\n      jumpi\n      0x00\n      dup1\n      revert\n    tag_16:\n      pop\n      tag_17\n      tag_18\n      jump\t// in\n    tag_17:\n      mload(0x40)\n      tag_19\n      swap2\n      swap1\n      tag_11\n      jump\t// in\n    tag_19:\n      mload(0x40)\n      dup1\n      swap2\n      sub\n      swap1\n      return\n        /* \"new workspace/FundMe.sol\":1027:1154  function fund() public payable {... */\n    tag_5:\n      tag_20\n      tag_21\n      jump\t// in\n    tag_20:\n      stop\n        /* \"new workspace/FundMe.sol\":1592:1811  function getconversionRate(uint256 ethAmount) public view returns(uint256){... */\n    tag_6:\n      callvalue\n      dup1\n      iszero\n      tag_22\n      jumpi\n      0x00\n      dup1\n      revert\n    tag_22:\n      pop\n      tag_23\n      0x04\n      dup1\n      calldatasize\n      sub\n      dup2\n      add\n      swap1\n      tag_24\n      swap2\n      swap1\n      tag_25\n      jump\t// in\n    tag_24:\n      tag_26\n      jump\t// in\n    tag_23:\n      mload(0x40)\n      tag_27\n      swap2\n      swap1\n      tag_11\n      jump\t// in\n    tag_27:\n      mload(0x40)\n      dup1\n      swap2\n      sub\n      swap1\n      return\n        /* \"new workspace/FundMe.sol\":986:1018  uint256 public minimumUsd = 5e18 */\n    tag_9:\n      sload(0x00)\n      dup2\n      jump\t// out\n        /* \"new workspace/FundMe.sol\":1819:1972  function getVersion() public view returns (uint256) {... */\n    tag_14:\n        /* \"new workspace/FundMe.sol\":1862:1869  uint256 */\n      0x00\n        /* \"new workspace/FundMe.sol\":1911:1953  0x694AA1769357215DE4FAC081bf1f309aDC325306 */\n      0x694aa1769357215de4fac081bf1f309adc325306\n        /* \"new workspace/FundMe.sol\":1889:1962  AggregatorV3Interface(0x694AA1769357215DE4FAC081bf1f309aDC325306).version */\n      0xffffffffffffffffffffffffffffffffffffffff\n      and\n      0x54fd4d50\n        /* \"new workspace/FundMe.sol\":1889:1964  AggregatorV3Interface(0x694AA1769357215DE4FAC081bf1f309aDC325306).version() */\n      mload(0x40)\n      dup2\n      0xffffffff\n      and\n      0xe0\n      shl\n      dup2\n      mstore\n      0x04\n      add\n      0x20\n      mload(0x40)\n      dup1\n      dup4\n      sub\n      dup2\n      dup7\n      gas\n      staticcall\n      iszero\n      dup1\n      iszero\n      tag_30\n      jumpi\n      returndatasize\n      0x00\n      dup1\n      returndatacopy\n      revert(0x00, returndatasize)\n    tag_30:\n      pop\n      pop\n      pop\n      pop\n      mload(0x40)\n      returndatasize\n      not(0x1f)\n      0x1f\n      dup3\n      add\n      and\n      dup3\n      add\n      dup1\n      0x40\n      mstore\n      pop\n      dup2\n      add\n      swap1\n      tag_31\n      swap2\n      swap1\n      tag_32\n      jump\t// in\n    tag_31:\n        /* \"new workspace/FundMe.sol\":1882:1964  return AggregatorV3Interface(0x694AA1769357215DE4FAC081bf1f309aDC325306).version() */\n      swap1\n      pop\n        /* \"new workspace/FundMe.sol\":1819:1972  function getVersion() public view returns (uint256) {... */\n      swap1\n      jump\t// out\n        /* \"new workspace/FundMe.sol\":1200:1584  function getPrice() public view returns(uint256){... */\n    tag_18:\n        /* \"new workspace/FundMe.sol\":1240:1247  uint256 */\n      0x00\n        /* \"new workspace/FundMe.sol\":1336:1367  AggregatorV3Interface priceFeed */\n      dup1\n        /* \"new workspace/FundMe.sol\":1392:1434  0x694AA1769357215DE4FAC081bf1f309aDC325306 */\n      0x694aa1769357215de4fac081bf1f309adc325306\n        /* \"new workspace/FundMe.sol\":1336:1435  AggregatorV3Interface priceFeed = AggregatorV3Interface(0x694AA1769357215DE4FAC081bf1f309aDC325306) */\n      swap1\n      pop\n        /* \"new workspace/FundMe.sol\":1449:1461  int256 price */\n      0x00\n        /* \"new workspace/FundMe.sol\":1467:1476  priceFeed */\n      dup2\n        /* \"new workspace/FundMe.sol\":1467:1492  priceFeed.latestRoundData */\n      0xffffffffffffffffffffffffffffffffffffffff\n      and\n      0xfeaf968c\n        /* \"new workspace/FundMe.sol\":1467:1494  priceFeed.latestRoundData() */\n      mload(0x40)\n      dup2\n      0xffffffff\n      and\n      0xe0\n      shl\n      dup2\n      mstore\n      0x04\n      add\n      0xa0\n      mload(0x40)\n      dup1\n      dup4\n      sub\n      dup2\n      dup7\n      gas\n      staticcall\n      iszero\n      dup1\n      iszero\n      tag_35\n      jumpi\n      returndatasize\n      0x00\n      dup1\n      returndatacopy\n      revert(0x00, returndatasize)\n    tag_35:\n      pop\n      pop\n      pop\n      pop\n      mload(0x40)\n      returndatasize\n      not(0x1f)\n      0x1f\n      dup3\n      add\n      and\n      dup3\n      add\n      dup1\n      0x40\n      mstore\n      pop\n      dup2\n      add\n      swap1\n      tag_36\n      swap2\n      swap1\n      tag_37\n      jump\t// in\n    tag_36:\n        /* \"new workspace/FundMe.sol\":1446:1494  (, int256 price,,,)= priceFeed.latestRoundData() */\n      pop\n      pop\n      pop\n      swap2\n      pop\n      pop\n        /* \"new workspace/FundMe.sol\":1569:1573  1e10 */\n      0x02540be400\n        /* \"new workspace/FundMe.sol\":1561:1566  price */\n      dup2\n        /* \"new workspace/FundMe.sol\":1561:1573  price * 1e10 */\n      tag_38\n      swap2\n      swap1\n      tag_39\n      jump\t// in\n    tag_38:\n        /* \"new workspace/FundMe.sol\":1545:1574  return  uint256(price * 1e10) */\n      swap3\n      pop\n      pop\n      pop\n        /* \"new workspace/FundMe.sol\":1200:1584  function getPrice() public view returns(uint256){... */\n      swap1\n      jump\t// out\n        /* \"new workspace/FundMe.sol\":1027:1154  function fund() public payable {... */\n    tag_21:\n        /* \"new workspace/FundMe.sol\":1109:1119  minimumUsd */\n      sload(0x00)\n        /* \"new workspace/FundMe.sol\":1077:1105  getconversionRate(msg.value) */\n      tag_41\n        /* \"new workspace/FundMe.sol\":1095:1104  msg.value */\n      callvalue\n        /* \"new workspace/FundMe.sol\":1077:1094  getconversionRate */\n      tag_26\n        /* \"new workspace/FundMe.sol\":1077:1105  getconversionRate(msg.value) */\n      jump\t// in\n    tag_41:\n        /* \"new workspace/FundMe.sol\":1077:1119  getconversionRate(msg.value) >= minimumUsd */\n      lt\n      iszero\n        /* \"new workspace/FundMe.sol\":1069:1146  require(getconversionRate(msg.value) >= minimumUsd, \"didn't send enough ETH\") */\n      tag_42\n      jumpi\n      mload(0x40)\n      0x08c379a000000000000000000000000000000000000000000000000000000000\n      dup2\n      mstore\n      0x04\n      add\n      tag_43\n      swap1\n      tag_44\n      jump\t// in\n    tag_43:\n      mload(0x40)\n      dup1\n      swap2\n      sub\n      swap1\n      revert\n    tag_42:\n        /* \"new workspace/FundMe.sol\":1027:1154  function fund() public payable {... */\n      jump\t// out\n        /* \"new workspace/FundMe.sol\":1592:1811  function getconversionRate(uint256 ethAmount) public view returns(uint256){... */\n    tag_26:\n        /* \"new workspace/FundMe.sol\":1658:1665  uint256 */\n      0x00\n        /* \"new workspace/FundMe.sol\":1677:1693  uint256 ethPrice */\n      dup1\n        /* \"new workspace/FundMe.sol\":1696:1706  getPrice() */\n      tag_46\n        /* \"new workspace/FundMe.sol\":1696:1704  getPrice */\n      tag_18\n        /* \"new workspace/FundMe.sol\":1696:1706  getPrice() */\n      jump\t// in\n    tag_46:\n        /* \"new workspace/FundMe.sol\":1677:1706  uint256 ethPrice = getPrice() */\n      swap1\n      pop\n        /* \"new workspace/FundMe.sol\":1717:1739  uint256 ethAmountInUsd */\n      0x00\n        /* \"new workspace/FundMe.sol\":1767:1771  1e18 */\n      0x0de0b6b3a7640000\n        /* \"new workspace/FundMe.sol\":1754:1763  ethAmount */\n      dup5\n        /* \"new workspace/FundMe.sol\":1743:1751  ethPrice */\n      dup4\n        /* \"new workspace/FundMe.sol\":1743:1763  ethPrice * ethAmount */\n      tag_47\n      swap2\n      swap1\n      tag_48\n      jump\t// in\n    tag_47:\n        /* \"new workspace/FundMe.sol\":1742:1771  (ethPrice * ethAmount) / 1e18 */\n      tag_49\n      swap2\n      swap1\n      tag_50\n      jump\t// in\n    tag_49:\n        /* \"new workspace/FundMe.sol\":1717:1771  uint256 ethAmountInUsd = (ethPrice * ethAmount) / 1e18 */\n      swap1\n      pop\n        /* \"new workspace/FundMe.sol\":1789:1803  ethAmountInUsd */\n      dup1\n        /* \"new workspace/FundMe.sol\":1782:1803  return ethAmountInUsd */\n      swap3\n      pop\n      pop\n      pop\n        /* \"new workspace/FundMe.sol\":1592:1811  function getconversionRate(uint256 ethAmount) public view returns(uint256){... */\n      swap2\n      swap1\n      pop\n      jump\t// out\n        /* \"#utility.yul\":7:84   */\n    tag_51:\n        /* \"#utility.yul\":44:51   */\n      0x00\n        /* \"#utility.yul\":73:78   */\n      dup2\n        /* \"#utility.yul\":62:78   */\n      swap1\n      pop\n        /* \"#utility.yul\":7:84   */\n      swap2\n      swap1\n      pop\n      jump\t// out\n        /* \"#utility.yul\":90:208   */\n    tag_52:\n        /* \"#utility.yul\":177:201   */\n      tag_73\n        /* \"#utility.yul\":195:200   */\n      dup2\n        /* \"#utility.yul\":177:201   */\n      tag_51\n      jump\t// in\n    tag_73:\n        /* \"#utility.yul\":172:175   */\n      dup3\n        /* \"#utility.yul\":165:202   */\n      mstore\n        /* \"#utility.yul\":90:208   */\n      pop\n      pop\n      jump\t// out\n        /* \"#utility.yul\":214:436   */\n    tag_11:\n        /* \"#utility.yul\":307:311   */\n      0x00\n        /* \"#utility.yul\":345:347   */\n      0x20\n        /* \"#utility.yul\":334:343   */\n      dup3\n        /* \"#utility.yul\":330:348   */\n      add\n        /* \"#utility.yul\":322:348   */\n      swap1\n      pop\n        /* \"#utility.yul\":358:429   */\n      tag_75\n        /* \"#utility.yul\":426:427   */\n      0x00\n        /* \"#utility.yul\":415:424   */\n      dup4\n        /* \"#utility.yul\":411:428   */\n      add\n        /* \"#utility.yul\":402:408   */\n      dup5\n        /* \"#utility.yul\":358:429   */\n      tag_52\n      jump\t// in\n    tag_75:\n        /* \"#utility.yul\":214:436   */\n      swap3\n      swap2\n      pop\n      pop\n      jump\t// out\n        /* \"#utility.yul\":523:640   */\n    tag_54:\n        /* \"#utility.yul\":632:633   */\n      0x00\n        /* \"#utility.yul\":629:630   */\n      dup1\n        /* \"#utility.yul\":622:634   */\n      revert\n        /* \"#utility.yul\":769:891   */\n    tag_56:\n        /* \"#utility.yul\":842:866   */\n      tag_80\n        /* \"#utility.yul\":860:865   */\n      dup2\n        /* \"#utility.yul\":842:866   */\n      tag_51\n      jump\t// in\n    tag_80:\n        /* \"#utility.yul\":835:840   */\n      dup2\n        /* \"#utility.yul\":832:867   */\n      eq\n        /* \"#utility.yul\":822:885   */\n      tag_81\n      jumpi\n        /* \"#utility.yul\":881:882   */\n      0x00\n        /* \"#utility.yul\":878:879   */\n      dup1\n        /* \"#utility.yul\":871:883   */\n      revert\n        /* \"#utility.yul\":822:885   */\n    tag_81:\n        /* \"#utility.yul\":769:891   */\n      pop\n      jump\t// out\n        /* \"#utility.yul\":897:1036   */\n    tag_57:\n        /* \"#utility.yul\":943:948   */\n      0x00\n        /* \"#utility.yul\":981:987   */\n      dup2\n        /* \"#utility.yul\":968:988   */\n      calldataload\n        /* \"#utility.yul\":959:988   */\n      swap1\n      pop\n        /* \"#utility.yul\":997:1030   */\n      tag_83\n        /* \"#utility.yul\":1024:1029   */\n      dup2\n        /* \"#utility.yul\":997:1030   */\n      tag_56\n      jump\t// in\n    tag_83:\n        /* \"#utility.yul\":897:1036   */\n      swap3\n      swap2\n      pop\n      pop\n      jump\t// out\n        /* \"#utility.yul\":1042:1371   */\n    tag_25:\n        /* \"#utility.yul\":1101:1107   */\n      0x00\n        /* \"#utility.yul\":1150:1152   */\n      0x20\n        /* \"#utility.yul\":1138:1147   */\n      dup3\n        /* \"#utility.yul\":1129:1136   */\n      dup5\n        /* \"#utility.yul\":1125:1148   */\n      sub\n        /* \"#utility.yul\":1121:1153   */\n      slt\n        /* \"#utility.yul\":1118:1237   */\n      iszero\n      tag_85\n      jumpi\n        /* \"#utility.yul\":1156:1235   */\n      tag_86\n      tag_54\n      jump\t// in\n    tag_86:\n        /* \"#utility.yul\":1118:1237   */\n    tag_85:\n        /* \"#utility.yul\":1276:1277   */\n      0x00\n        /* \"#utility.yul\":1301:1354   */\n      tag_87\n        /* \"#utility.yul\":1346:1353   */\n      dup5\n        /* \"#utility.yul\":1337:1343   */\n      dup3\n        /* \"#utility.yul\":1326:1335   */\n      dup6\n        /* \"#utility.yul\":1322:1344   */\n      add\n        /* \"#utility.yul\":1301:1354   */\n      tag_57\n      jump\t// in\n    tag_87:\n        /* \"#utility.yul\":1291:1354   */\n      swap2\n      pop\n        /* \"#utility.yul\":1247:1364   */\n      pop\n        /* \"#utility.yul\":1042:1371   */\n      swap3\n      swap2\n      pop\n      pop\n      jump\t// out\n        /* \"#utility.yul\":1377:1520   */\n    tag_58:\n        /* \"#utility.yul\":1434:1439   */\n      0x00\n        /* \"#utility.yul\":1465:1471   */\n      dup2\n        /* \"#utility.yul\":1459:1472   */\n      mload\n        /* \"#utility.yul\":1450:1472   */\n      swap1\n      pop\n        /* \"#utility.yul\":1481:1514   */\n      tag_89\n        /* \"#utility.yul\":1508:1513   */\n      dup2\n        /* \"#utility.yul\":1481:1514   */\n      tag_56\n      jump\t// in\n    tag_89:\n        /* \"#utility.yul\":1377:1520   */\n      swap3\n      swap2\n      pop\n      pop\n      jump\t// out\n        /* \"#utility.yul\":1526:1877   */\n    tag_32:\n        /* \"#utility.yul\":1596:1602   */\n      0x00\n        /* \"#utility.yul\":1645:1647   */\n      0x20\n        /* \"#utility.yul\":1633:1642   */\n      dup3\n        /* \"#utility.yul\":1624:1631   */\n      dup5\n        /* \"#utility.yul\":1620:1643   */\n      sub\n        /* \"#utility.yul\":1616:1648   */\n      slt\n        /* \"#utility.yul\":1613:1732   */\n      iszero\n      tag_91\n      jumpi\n        /* \"#utility.yul\":1651:1730   */\n      tag_92\n      tag_54\n      jump\t// in\n    tag_92:\n        /* \"#utility.yul\":1613:1732   */\n    tag_91:\n        /* \"#utility.yul\":1771:1772   */\n      0x00\n        /* \"#utility.yul\":1796:1860   */\n      tag_93\n        /* \"#utility.yul\":1852:1859   */\n      dup5\n        /* \"#utility.yul\":1843:1849   */\n      dup3\n        /* \"#utility.yul\":1832:1841   */\n      dup6\n        /* \"#utility.yul\":1828:1850   */\n      add\n        /* \"#utility.yul\":1796:1860   */\n      tag_58\n      jump\t// in\n    tag_93:\n        /* \"#utility.yul\":1786:1860   */\n      swap2\n      pop\n        /* \"#utility.yul\":1742:1870   */\n      pop\n        /* \"#utility.yul\":1526:1877   */\n      swap3\n      swap2\n      pop\n      pop\n      jump\t// out\n        /* \"#utility.yul\":1883:1988   */\n    tag_59:\n        /* \"#utility.yul\":1919:1926   */\n      0x00\n        /* \"#utility.yul\":1959:1981   */\n      0xffffffffffffffffffff\n        /* \"#utility.yul\":1952:1957   */\n      dup3\n        /* \"#utility.yul\":1948:1982   */\n      and\n        /* \"#utility.yul\":1937:1982   */\n      swap1\n      pop\n        /* \"#utility.yul\":1883:1988   */\n      swap2\n      swap1\n      pop\n      jump\t// out\n        /* \"#utility.yul\":1994:2114   */\n    tag_60:\n        /* \"#utility.yul\":2066:2089   */\n      tag_96\n        /* \"#utility.yul\":2083:2088   */\n      dup2\n        /* \"#utility.yul\":2066:2089   */\n      tag_59\n      jump\t// in\n    tag_96:\n        /* \"#utility.yul\":2059:2064   */\n      dup2\n        /* \"#utility.yul\":2056:2090   */\n      eq\n        /* \"#utility.yul\":2046:2108   */\n      tag_97\n      jumpi\n        /* \"#utility.yul\":2104:2105   */\n      0x00\n        /* \"#utility.yul\":2101:2102   */\n      dup1\n        /* \"#utility.yul\":2094:2106   */\n      revert\n        /* \"#utility.yul\":2046:2108   */\n    tag_97:\n        /* \"#utility.yul\":1994:2114   */\n      pop\n      jump\t// out\n        /* \"#utility.yul\":2120:2261   */\n    tag_61:\n        /* \"#utility.yul\":2176:2181   */\n      0x00\n        /* \"#utility.yul\":2207:2213   */\n      dup2\n        /* \"#utility.yul\":2201:2214   */\n      mload\n        /* \"#utility.yul\":2192:2214   */\n      swap1\n      pop\n        /* \"#utility.yul\":2223:2255   */\n      tag_99\n        /* \"#utility.yul\":2249:2254   */\n      dup2\n        /* \"#utility.yul\":2223:2255   */\n      tag_60\n      jump\t// in\n    tag_99:\n        /* \"#utility.yul\":2120:2261   */\n      swap3\n      swap2\n      pop\n      pop\n      jump\t// out\n        /* \"#utility.yul\":2267:2343   */\n    tag_62:\n        /* \"#utility.yul\":2303:2310   */\n      0x00\n        /* \"#utility.yul\":2332:2337   */\n      dup2\n        /* \"#utility.yul\":2321:2337   */\n      swap1\n      pop\n        /* \"#utility.yul\":2267:2343   */\n      swap2\n      swap1\n      pop\n      jump\t// out\n        /* \"#utility.yul\":2349:2469   */\n    tag_63:\n        /* \"#utility.yul\":2421:2444   */\n      tag_102\n        /* \"#utility.yul\":2438:2443   */\n      dup2\n        /* \"#utility.yul\":2421:2444   */\n      tag_62\n      jump\t// in\n    tag_102:\n        /* \"#utility.yul\":2414:2419   */\n      dup2\n        /* \"#utility.yul\":2411:2445   */\n      eq\n        /* \"#utility.yul\":2401:2463   */\n      tag_103\n      jumpi\n        /* \"#utility.yul\":2459:2460   */\n      0x00\n        /* \"#utility.yul\":2456:2457   */\n      dup1\n        /* \"#utility.yul\":2449:2461   */\n      revert\n        /* \"#utility.yul\":2401:2463   */\n    tag_103:\n        /* \"#utility.yul\":2349:2469   */\n      pop\n      jump\t// out\n        /* \"#utility.yul\":2475:2616   */\n    tag_64:\n        /* \"#utility.yul\":2531:2536   */\n      0x00\n        /* \"#utility.yul\":2562:2568   */\n      dup2\n        /* \"#utility.yul\":2556:2569   */\n      mload\n        /* \"#utility.yul\":2547:2569   */\n      swap1\n      pop\n        /* \"#utility.yul\":2578:2610   */\n      tag_105\n        /* \"#utility.yul\":2604:2609   */\n      dup2\n        /* \"#utility.yul\":2578:2610   */\n      tag_63\n      jump\t// in\n    tag_105:\n        /* \"#utility.yul\":2475:2616   */\n      swap3\n      swap2\n      pop\n      pop\n      jump\t// out\n        /* \"#utility.yul\":2622:3593   */\n    tag_37:\n        /* \"#utility.yul\":2725:2731   */\n      0x00\n        /* \"#utility.yul\":2733:2739   */\n      dup1\n        /* \"#utility.yul\":2741:2747   */\n      0x00\n        /* \"#utility.yul\":2749:2755   */\n      dup1\n        /* \"#utility.yul\":2757:2763   */\n      0x00\n        /* \"#utility.yul\":2806:2809   */\n      0xa0\n        /* \"#utility.yul\":2794:2803   */\n      dup7\n        /* \"#utility.yul\":2785:2792   */\n      dup9\n        /* \"#utility.yul\":2781:2804   */\n      sub\n        /* \"#utility.yul\":2777:2810   */\n      slt\n        /* \"#utility.yul\":2774:2894   */\n      iszero\n      tag_107\n      jumpi\n        /* \"#utility.yul\":2813:2892   */\n      tag_108\n      tag_54\n      jump\t// in\n    tag_108:\n        /* \"#utility.yul\":2774:2894   */\n    tag_107:\n        /* \"#utility.yul\":2933:2934   */\n      0x00\n        /* \"#utility.yul\":2958:3021   */\n      tag_109\n        /* \"#utility.yul\":3013:3020   */\n      dup9\n        /* \"#utility.yul\":3004:3010   */\n      dup3\n        /* \"#utility.yul\":2993:3002   */\n      dup10\n        /* \"#utility.yul\":2989:3011   */\n      add\n        /* \"#utility.yul\":2958:3021   */\n      tag_61\n      jump\t// in\n    tag_109:\n        /* \"#utility.yul\":2948:3021   */\n      swap6\n      pop\n        /* \"#utility.yul\":2904:3031   */\n      pop\n        /* \"#utility.yul\":3070:3072   */\n      0x20\n        /* \"#utility.yul\":3096:3159   */\n      tag_110\n        /* \"#utility.yul\":3151:3158   */\n      dup9\n        /* \"#utility.yul\":3142:3148   */\n      dup3\n        /* \"#utility.yul\":3131:3140   */\n      dup10\n        /* \"#utility.yul\":3127:3149   */\n      add\n        /* \"#utility.yul\":3096:3159   */\n      tag_64\n      jump\t// in\n    tag_110:\n        /* \"#utility.yul\":3086:3159   */\n      swap5\n      pop\n        /* \"#utility.yul\":3041:3169   */\n      pop\n        /* \"#utility.yul\":3208:3210   */\n      0x40\n        /* \"#utility.yul\":3234:3298   */\n      tag_111\n        /* \"#utility.yul\":3290:3297   */\n      dup9\n        /* \"#utility.yul\":3281:3287   */\n      dup3\n        /* \"#utility.yul\":3270:3279   */\n      dup10\n        /* \"#utility.yul\":3266:3288   */\n      add\n        /* \"#utility.yul\":3234:3298   */\n      tag_58\n      jump\t// in\n    tag_111:\n        /* \"#utility.yul\":3224:3298   */\n      swap4\n      pop\n        /* \"#utility.yul\":3179:3308   */\n      pop\n        /* \"#utility.yul\":3347:3349   */\n      0x60\n        /* \"#utility.yul\":3373:3437   */\n      tag_112\n        /* \"#utility.yul\":3429:3436   */\n      dup9\n        /* \"#utility.yul\":3420:3426   */\n      dup3\n        /* \"#utility.yul\":3409:3418   */\n      dup10\n        /* \"#utility.yul\":3405:3427   */\n      add\n        /* \"#utility.yul\":3373:3437   */\n      tag_58\n      jump\t// in\n    tag_112:\n        /* \"#utility.yul\":3363:3437   */\n      swap3\n      pop\n        /* \"#utility.yul\":3318:3447   */\n      pop\n        /* \"#utility.yul\":3486:3489   */\n      0x80\n        /* \"#utility.yul\":3513:3576   */\n      tag_113\n        /* \"#utility.yul\":3568:3575   */\n      dup9\n        /* \"#utility.yul\":3559:3565   */\n      dup3\n        /* \"#utility.yul\":3548:3557   */\n      dup10\n        /* \"#utility.yul\":3544:3566   */\n      add\n        /* \"#utility.yul\":3513:3576   */\n      tag_61\n      jump\t// in\n    tag_113:\n        /* \"#utility.yul\":3503:3576   */\n      swap2\n      pop\n        /* \"#utility.yul\":3457:3586   */\n      pop\n        /* \"#utility.yul\":2622:3593   */\n      swap3\n      swap6\n      pop\n      swap3\n      swap6\n      swap1\n      swap4\n      pop\n      jump\t// out\n        /* \"#utility.yul\":3599:3779   */\n    tag_65:\n        /* \"#utility.yul\":3647:3724   */\n      0x4e487b7100000000000000000000000000000000000000000000000000000000\n        /* \"#utility.yul\":3644:3645   */\n      0x00\n        /* \"#utility.yul\":3637:3725   */\n      mstore\n        /* \"#utility.yul\":3744:3748   */\n      0x11\n        /* \"#utility.yul\":3741:3742   */\n      0x04\n        /* \"#utility.yul\":3734:3749   */\n      mstore\n        /* \"#utility.yul\":3768:3772   */\n      0x24\n        /* \"#utility.yul\":3765:3766   */\n      0x00\n        /* \"#utility.yul\":3758:3773   */\n      revert\n        /* \"#utility.yul\":3785:4341   */\n    tag_39:\n        /* \"#utility.yul\":3824:3831   */\n      0x00\n        /* \"#utility.yul\":3847:3866   */\n      tag_116\n        /* \"#utility.yul\":3864:3865   */\n      dup3\n        /* \"#utility.yul\":3847:3866   */\n      tag_62\n      jump\t// in\n    tag_116:\n        /* \"#utility.yul\":3842:3866   */\n      swap2\n      pop\n        /* \"#utility.yul\":3880:3899   */\n      tag_117\n        /* \"#utility.yul\":3897:3898   */\n      dup4\n        /* \"#utility.yul\":3880:3899   */\n      tag_62\n      jump\t// in\n    tag_117:\n        /* \"#utility.yul\":3875:3899   */\n      swap3\n      pop\n        /* \"#utility.yul\":3934:3935   */\n      dup3\n        /* \"#utility.yul\":3931:3932   */\n      dup3\n        /* \"#utility.yul\":3927:3936   */\n      mul\n        /* \"#utility.yul\":3956:3985   */\n      tag_118\n        /* \"#utility.yul\":3973:3984   */\n      dup2\n        /* \"#utility.yul\":3956:3985   */\n      tag_62\n      jump\t// in\n    tag_118:\n        /* \"#utility.yul\":3945:3985   */\n      swap2\n      pop\n        /* \"#utility.yul\":4043:4109   */\n      0x8000000000000000000000000000000000000000000000000000000000000000\n        /* \"#utility.yul\":4040:4041   */\n      dup5\n        /* \"#utility.yul\":4037:4110   */\n      eq\n        /* \"#utility.yul\":4033:4034   */\n      0x00\n        /* \"#utility.yul\":4030:4031   */\n      dup5\n        /* \"#utility.yul\":4026:4035   */\n      slt\n        /* \"#utility.yul\":4022:4111   */\n      and\n        /* \"#utility.yul\":4019:4134   */\n      iszero\n      tag_119\n      jumpi\n        /* \"#utility.yul\":4114:4132   */\n      tag_120\n      tag_65\n      jump\t// in\n    tag_120:\n        /* \"#utility.yul\":4019:4134   */\n    tag_119:\n        /* \"#utility.yul\":4284:4285   */\n      dup3\n        /* \"#utility.yul\":4275:4282   */\n      dup3\n        /* \"#utility.yul\":4270:4286   */\n      sdiv\n        /* \"#utility.yul\":4267:4268   */\n      dup5\n        /* \"#utility.yul\":4264:4287   */\n      eq\n        /* \"#utility.yul\":4244:4245   */\n      dup4\n        /* \"#utility.yul\":4237:4246   */\n      iszero\n        /* \"#utility.yul\":4217:4301   */\n      or\n        /* \"#utility.yul\":4194:4334   */\n      tag_121\n      jumpi\n        /* \"#utility.yul\":4314:4332   */\n      tag_122\n      tag_65\n      jump\t// in\n    tag_122:\n        /* \"#utility.yul\":4194:4334   */\n    tag_121:\n        /* \"#utility.yul\":3832:4341   */\n      pop\n        /* \"#utility.yul\":3785:4341   */\n      swap3\n      swap2\n      pop\n      pop\n      jump\t// out\n        /* \"#utility.yul\":4347:4516   */\n    tag_66:\n        /* \"#utility.yul\":4431:4442   */\n      0x00\n        /* \"#utility.yul\":4465:4471   */\n      dup3\n        /* \"#utility.yul\":4460:4463   */\n      dup3\n        /* \"#utility.yul\":4453:4472   */\n      mstore\n        /* \"#utility.yul\":4505:4509   */\n      0x20\n        /* \"#utility.yul\":4500:4503   */\n      dup3\n        /* \"#utility.yul\":4496:4510   */\n      add\n        /* \"#utility.yul\":4481:4510   */\n      swap1\n      pop\n        /* \"#utility.yul\":4347:4516   */\n      swap3\n      swap2\n      pop\n      pop\n      jump\t// out\n        /* \"#utility.yul\":4522:4694   */\n    tag_67:\n        /* \"#utility.yul\":4662:4686   */\n      0x6469646e27742073656e6420656e6f7567682045544800000000000000000000\n        /* \"#utility.yul\":4658:4659   */\n      0x00\n        /* \"#utility.yul\":4650:4656   */\n      dup3\n        /* \"#utility.yul\":4646:4660   */\n      add\n        /* \"#utility.yul\":4639:4687   */\n      mstore\n        /* \"#utility.yul\":4522:4694   */\n      pop\n      jump\t// out\n        /* \"#utility.yul\":4700:5066   */\n    tag_68:\n        /* \"#utility.yul\":4842:4845   */\n      0x00\n        /* \"#utility.yul\":4863:4930   */\n      tag_126\n        /* \"#utility.yul\":4927:4929   */\n      0x16\n        /* \"#utility.yul\":4922:4925   */\n      dup4\n        /* \"#utility.yul\":4863:4930   */\n      tag_66\n      jump\t// in\n    tag_126:\n        /* \"#utility.yul\":4856:4930   */\n      swap2\n      pop\n        /* \"#utility.yul\":4939:5032   */\n      tag_127\n        /* \"#utility.yul\":5028:5031   */\n      dup3\n        /* \"#utility.yul\":4939:5032   */\n      tag_67\n      jump\t// in\n    tag_127:\n        /* \"#utility.yul\":5057:5059   */\n      0x20\n        /* \"#utility.yul\":5052:5055   */\n      dup3\n        /* \"#utility.yul\":5048:5060   */\n      add\n        /* \"#utility.yul\":5041:5060   */\n      swap1\n      pop\n        /* \"#utility.yul\":4700:5066   */\n      swap2\n      swap1\n      pop\n      jump\t// out\n        /* \"#utility.yul\":5072:5491   */\n    tag_44:\n        /* \"#utility.yul\":5238:5242   */\n      0x00\n        /* \"#utility.yul\":5276:5278   */\n      0x20\n        /* \"#utility.yul\":5265:5274   */\n      dup3\n        /* \"#utility.yul\":5261:5279   */\n      add\n        /* \"#utility.yul\":5253:5279   */\n      swap1\n      pop\n        /* \"#utility.yul\":5325:5334   */\n      dup2\n        /* \"#utility.yul\":5319:5323   */\n      dup2\n        /* \"#utility.yul\":5315:5335   */\n      sub\n        /* \"#utility.yul\":5311:5312   */\n      0x00\n        /* \"#utility.yul\":5300:5309   */\n      dup4\n        /* \"#utility.yul\":5296:5313   */\n      add\n        /* \"#utility.yul\":5289:5336   */\n      mstore\n        /* \"#utility.yul\":5353:5484   */\n      tag_129\n        /* \"#utility.yul\":5479:5483   */\n      dup2\n        /* \"#utility.yul\":5353:5484   */\n      tag_68\n      jump\t// in\n    tag_129:\n        /* \"#utility.yul\":5345:5484   */\n      swap1\n      pop\n        /* \"#utility.yul\":5072:5491   */\n      swap2\n      swap1\n      pop\n      jump\t// out\n        /* \"#utility.yul\":5497:5907   */\n    tag_48:\n        /* \"#utility.yul\":5537:5544   */\n      0x00\n        /* \"#utility.yul\":5560:5580   */\n      tag_131\n        /* \"#utility.yul\":5578:5579   */\n      dup3\n        /* \"#utility.yul\":5560:5580   */\n      tag_51\n      jump\t// in\n    tag_131:\n        /* \"#utility.yul\":5555:5580   */\n      swap2\n      pop\n        /* \"#utility.yul\":5594:5614   */\n      tag_132\n        /* \"#utility.yul\":5612:5613   */\n      dup4\n        /* \"#utility.yul\":5594:5614   */\n      tag_51\n      jump\t// in\n    tag_132:\n        /* \"#utility.yul\":5589:5614   */\n      swap3\n      pop\n        /* \"#utility.yul\":5649:5650   */\n      dup3\n        /* \"#utility.yul\":5646:5647   */\n      dup3\n        /* \"#utility.yul\":5642:5651   */\n      mul\n        /* \"#utility.yul\":5671:5701   */\n      tag_133\n        /* \"#utility.yul\":5689:5700   */\n      dup2\n        /* \"#utility.yul\":5671:5701   */\n      tag_51\n      jump\t// in\n    tag_133:\n        /* \"#utility.yul\":5660:5701   */\n      swap2\n      pop\n        /* \"#utility.yul\":5850:5851   */\n      dup3\n        /* \"#utility.yul\":5841:5848   */\n      dup3\n        /* \"#utility.yul\":5837:5852   */\n      div\n        /* \"#utility.yul\":5834:5835   */\n      dup5\n        /* \"#utility.yul\":5831:5853   */\n      eq\n        /* \"#utility.yul\":5811:5812   */\n      dup4\n        /* \"#utility.yul\":5804:5813   */\n      iszero\n        /* \"#utility.yul\":5784:5867   */\n      or\n        /* \"#utility.yul\":5761:5900   */\n      tag_134\n      jumpi\n        /* \"#utility.yul\":5880:5898   */\n      tag_135\n      tag_65\n      jump\t// in\n    tag_135:\n        /* \"#utility.yul\":5761:5900   */\n    tag_134:\n        /* \"#utility.yul\":5545:5907   */\n      pop\n        /* \"#utility.yul\":5497:5907   */\n      swap3\n      swap2\n      pop\n      pop\n      jump\t// out\n        /* \"#utility.yul\":5913:6093   */\n    tag_69:\n        /* \"#utility.yul\":5961:6038   */\n      0x4e487b7100000000000000000000000000000000000000000000000000000000\n        /* \"#utility.yul\":5958:5959   */\n      0x00\n        /* \"#utility.yul\":5951:6039   */\n      mstore\n        /* \"#utility.yul\":6058:6062   */\n      0x12\n        /* \"#utility.yul\":6055:6056   */\n      0x04\n        /* \"#utility.yul\":6048:6063   */\n      mstore\n        /* \"#utility.yul\":6082:6086   */\n      0x24\n        /* \"#utility.yul\":6079:6080   */\n      0x00\n        /* \"#utility.yul\":6072:6087   */\n      revert\n        /* \"#utility.yul\":6099:6284   */\n    tag_50:\n        /* \"#utility.yul\":6139:6140   */\n      0x00\n        /* \"#utility.yul\":6156:6176   */\n      tag_138\n        /* \"#utility.yul\":6174:6175   */\n      dup3\n        /* \"#utility.yul\":6156:6176   */\n      tag_51\n      jump\t// in\n    tag_138:\n        /* \"#utility.yul\":6151:6176   */\n      swap2\n      pop\n        /* \"#utility.yul\":6190:6210   */\n      tag_139\n        /* \"#utility.yul\":6208:6209   */\n      dup4\n        /* \"#utility.yul\":6190:6210   */\n      tag_51\n      jump\t// in\n    tag_139:\n        /* \"#utility.yul\":6185:6210   */\n      swap3\n      pop\n        /* \"#utility.yul\":6229:6230   */\n      dup3\n        /* \"#utility.yul\":6219:6254   */\n      tag_140\n      jumpi\n        /* \"#utility.yul\":6234:6252   */\n      tag_141\n      tag_69\n      jump\t// in\n    tag_141:\n        /* \"#utility.yul\":6219:6254   */\n    tag_140:\n        /* \"#utility.yul\":6276:6277   */\n      dup3\n        /* \"#utility.yul\":6273:6274   */\n      dup3\n        /* \"#utility.yul\":6269:6278   */\n      div\n        /* \"#utility.yul\":6264:6278   */\n      swap1\n      pop\n        /* \"#utility.yul\":6099:6284   */\n      swap3\n      swap2\n      pop\n      pop\n      jump\t// out\n\n    auxdata: 0xa264697066735822122054df441b887f71ea17b542a15eea007ee06dc45e37398c0c11abae82ccbc0ff564736f6c63430008160033\n}\n",
				"bytecode": {
					"linkReferences": {},
					"object": "6080604052674563918244f400005f5534801561001a575f80fd5b50610669806100285f395ff3fe608060405260043610610049575f3560e01c8063098de8201461004d5780630d8e6e2c1461007757806398d5fdca146100a1578063b60d4288146100cb578063bf4c21eb146100d5575b5f80fd5b348015610058575f80fd5b50610061610111565b60405161006e91906102e0565b60405180910390f35b348015610082575f80fd5b5061008b610116565b60405161009891906102e0565b60405180910390f35b3480156100ac575f80fd5b506100b561019d565b6040516100c291906102e0565b60405180910390f35b6100d3610242565b005b3480156100e0575f80fd5b506100fb60048036038101906100f69190610327565b610290565b60405161010891906102e0565b60405180910390f35b5f5481565b5f73694aa1769357215de4fac081bf1f309adc32530673ffffffffffffffffffffffffffffffffffffffff166354fd4d506040518163ffffffff1660e01b8152600401602060405180830381865afa158015610174573d5f803e3d5ffd5b505050506040513d601f19601f820116820180604052508101906101989190610366565b905090565b5f8073694aa1769357215de4fac081bf1f309adc32530690505f8173ffffffffffffffffffffffffffffffffffffffff1663feaf968c6040518163ffffffff1660e01b815260040160a060405180830381865afa158015610200573d5f803e3d5ffd5b505050506040513d601f19601f820116820180604052508101906102249190610403565b5050509150506402540be4008161023b91906104a7565b9250505090565b5f5461024d34610290565b101561028e576040517f08c379a000000000000000000000000000000000000000000000000000000000815260040161028590610577565b60405180910390fd5b565b5f8061029a61019d565b90505f670de0b6b3a764000084836102b29190610595565b6102bc9190610603565b90508092505050919050565b5f819050919050565b6102da816102c8565b82525050565b5f6020820190506102f35f8301846102d1565b92915050565b5f80fd5b610306816102c8565b8114610310575f80fd5b50565b5f81359050610321816102fd565b92915050565b5f6020828403121561033c5761033b6102f9565b5b5f61034984828501610313565b91505092915050565b5f81519050610360816102fd565b92915050565b5f6020828403121561037b5761037a6102f9565b5b5f61038884828501610352565b91505092915050565b5f69ffffffffffffffffffff82169050919050565b6103af81610391565b81146103b9575f80fd5b50565b5f815190506103ca816103a6565b92915050565b5f819050919050565b6103e2816103d0565b81146103ec575f80fd5b50565b5f815190506103fd816103d9565b92915050565b5f805f805f60a0868803121561041c5761041b6102f9565b5b5f610429888289016103bc565b955050602061043a888289016103ef565b945050604061044b88828901610352565b935050606061045c88828901610352565b925050608061046d888289016103bc565b9150509295509295909350565b7f4e487b71000000000000000000000000000000000000000000000000000000005f52601160045260245ffd5b5f6104b1826103d0565b91506104bc836103d0565b92508282026104ca816103d0565b91507f800000000000000000000000000000000000000000000000000000000000000084145f841216156105015761050061047a565b5b82820584148315176105165761051561047a565b5b5092915050565b5f82825260208201905092915050565b7f6469646e27742073656e6420656e6f75676820455448000000000000000000005f82015250565b5f61056160168361051d565b915061056c8261052d565b602082019050919050565b5f6020820190508181035f83015261058e81610555565b9050919050565b5f61059f826102c8565b91506105aa836102c8565b92508282026105b8816102c8565b915082820484148315176105cf576105ce61047a565b5b5092915050565b7f4e487b71000000000000000000000000000000000000000000000000000000005f52601260045260245ffd5b5f61060d826102c8565b9150610618836102c8565b925082610628576106276105d6565b5b82820490509291505056fea264697066735822122054df441b887f71ea17b542a15eea007ee06dc45e37398c0c11abae82ccbc0ff564736f6c63430008160033",
					"opcodes": "PUSH1 0x80 PUSH1 0x40 MSTORE PUSH8 0x4563918244F40000 PUSH0 SSTORE CALLVALUE DUP1 ISZERO PUSH2 0x1A JUMPI PUSH0 DUP1 REVERT JUMPDEST POP PUSH2 0x669 DUP1 PUSH2 0x28 PUSH0 CODECOPY PUSH0 RETURN INVALID PUSH1 0x80 PUSH1 0x40 MSTORE PUSH1 0x4 CALLDATASIZE LT PUSH2 0x49 JUMPI PUSH0 CALLDATALOAD PUSH1 0xE0 SHR DUP1 PUSH4 0x98DE820 EQ PUSH2 0x4D JUMPI DUP1 PUSH4 0xD8E6E2C EQ PUSH2 0x77 JUMPI DUP1 PUSH4 0x98D5FDCA EQ PUSH2 0xA1 JUMPI DUP1 PUSH4 0xB60D4288 EQ PUSH2 0xCB JUMPI DUP1 PUSH4 0xBF4C21EB EQ PUSH2 0xD5 JUMPI JUMPDEST PUSH0 DUP1 REVERT JUMPDEST CALLVALUE DUP1 ISZERO PUSH2 0x58 JUMPI PUSH0 DUP1 REVERT JUMPDEST POP PUSH2 0x61 PUSH2 0x111 JUMP JUMPDEST PUSH1 0x40 MLOAD PUSH2 0x6E SWAP2 SWAP1 PUSH2 0x2E0 JUMP JUMPDEST PUSH1 0x40 MLOAD DUP1 SWAP2 SUB SWAP1 RETURN JUMPDEST CALLVALUE DUP1 ISZERO PUSH2 0x82 JUMPI PUSH0 DUP1 REVERT JUMPDEST POP PUSH2 0x8B PUSH2 0x116 JUMP JUMPDEST PUSH1 0x40 MLOAD PUSH2 0x98 SWAP2 SWAP1 PUSH2 0x2E0 JUMP JUMPDEST PUSH1 0x40 MLOAD DUP1 SWAP2 SUB SWAP1 RETURN JUMPDEST CALLVALUE DUP1 ISZERO PUSH2 0xAC JUMPI PUSH0 DUP1 REVERT JUMPDEST POP PUSH2 0xB5 PUSH2 0x19D JUMP JUMPDEST PUSH1 0x40 MLOAD PUSH2 0xC2 SWAP2 SWAP1 PUSH2 0x2E0 JUMP JUMPDEST PUSH1 0x40 MLOAD DUP1 SWAP2 SUB SWAP1 RETURN JUMPDEST PUSH2 0xD3 PUSH2 0x242 JUMP JUMPDEST STOP JUMPDEST CALLVALUE DUP1 ISZERO PUSH2 0xE0 JUMPI PUSH0 DUP1 REVERT JUMPDEST POP PUSH2 0xFB PUSH1 0x4 DUP1 CALLDATASIZE SUB DUP2 ADD SWAP1 PUSH2 0xF6 SWAP2 SWAP1 PUSH2 0x327 JUMP JUMPDEST PUSH2 0x290 JUMP JUMPDEST PUSH1 0x40 MLOAD PUSH2 0x108 SWAP2 SWAP1 PUSH2 0x2E0 JUMP JUMPDEST PUSH1 0x40 MLOAD DUP1 SWAP2 SUB SWAP1 RETURN JUMPDEST PUSH0 SLOAD DUP2 JUMP JUMPDEST PUSH0 PUSH20 0x694AA1769357215DE4FAC081BF1F309ADC325306 PUSH20 0xFFFFFFFFFFFFFFFFFFFFFFFFFFFFFFFFFFFFFFFF AND PUSH4 0x54FD4D50 PUSH1 0x40 MLOAD DUP2 PUSH4 0xFFFFFFFF AND PUSH1 0xE0 SHL DUP2 MSTORE PUSH1 0x4 ADD PUSH1 0x20 PUSH1 0x40 MLOAD DUP1 DUP4 SUB DUP2 DUP7 GAS STATICCALL ISZERO DUP1 ISZERO PUSH2 0x174 JUMPI RETURNDATASIZE PUSH0 DUP1 RETURNDATACOPY RETURNDATASIZE PUSH0 REVERT JUMPDEST POP POP POP POP PUSH1 0x40 MLOAD RETURNDATASIZE PUSH1 0x1F NOT PUSH1 0x1F DUP3 ADD AND DUP3 ADD DUP1 PUSH1 0x40 MSTORE POP DUP2 ADD SWAP1 PUSH2 0x198 SWAP2 SWAP1 PUSH2 0x366 JUMP JUMPDEST SWAP1 POP SWAP1 JUMP JUMPDEST PUSH0 DUP1 PUSH20 0x694AA1769357215DE4FAC081BF1F309ADC325306 SWAP1 POP PUSH0 DUP2 PUSH20 0xFFFFFFFFFFFFFFFFFFFFFFFFFFFFFFFFFFFFFFFF AND PUSH4 0xFEAF968C PUSH1 0x40 MLOAD DUP2 PUSH4 0xFFFFFFFF AND PUSH1 0xE0 SHL DUP2 MSTORE PUSH1 0x4 ADD PUSH1 0xA0 PUSH1 0x40 MLOAD DUP1 DUP4 SUB DUP2 DUP7 GAS STATICCALL ISZERO DUP1 ISZERO PUSH2 0x200 JUMPI RETURNDATASIZE PUSH0 DUP1 RETURNDATACOPY RETURNDATASIZE PUSH0 REVERT JUMPDEST POP POP POP POP PUSH1 0x40 MLOAD RETURNDATASIZE PUSH1 0x1F NOT PUSH1 0x1F DUP3 ADD AND DUP3 ADD DUP1 PUSH1 0x40 MSTORE POP DUP2 ADD SWAP1 PUSH2 0x224 SWAP2 SWAP1 PUSH2 0x403 JUMP JUMPDEST POP POP POP SWAP2 POP POP PUSH5 0x2540BE400 DUP2 PUSH2 0x23B SWAP2 SWAP1 PUSH2 0x4A7 JUMP JUMPDEST SWAP3 POP POP POP SWAP1 JUMP JUMPDEST PUSH0 SLOAD PUSH2 0x24D CALLVALUE PUSH2 0x290 JUMP JUMPDEST LT ISZERO PUSH2 0x28E JUMPI PUSH1 0x40 MLOAD PUSH32 0x8C379A000000000000000000000000000000000000000000000000000000000 DUP2 MSTORE PUSH1 0x4 ADD PUSH2 0x285 SWAP1 PUSH2 0x577 JUMP JUMPDEST PUSH1 0x40 MLOAD DUP1 SWAP2 SUB SWAP1 REVERT JUMPDEST JUMP JUMPDEST PUSH0 DUP1 PUSH2 0x29A PUSH2 0x19D JUMP JUMPDEST SWAP1 POP PUSH0 PUSH8 0xDE0B6B3A7640000 DUP5 DUP4 PUSH2 0x2B2 SWAP2 SWAP1 PUSH2 0x595 JUMP JUMPDEST PUSH2 0x2BC SWAP2 SWAP1 PUSH2 0x603 JUMP JUMPDEST SWAP1 POP DUP1 SWAP3 POP POP POP SWAP2 SWAP1 POP JUMP JUMPDEST PUSH0 DUP2 SWAP1 POP SWAP2 SWAP1 POP JUMP JUMPDEST PUSH2 0x2DA DUP2 PUSH2 0x2C8 JUMP JUMPDEST DUP3 MSTORE POP POP JUMP JUMPDEST PUSH0 PUSH1 0x20 DUP3 ADD SWAP1 POP PUSH2 0x2F3 PUSH0 DUP4 ADD DUP5 PUSH2 0x2D1 JUMP JUMPDEST SWAP3 SWAP2 POP POP JUMP JUMPDEST PUSH0 DUP1 REVERT JUMPDEST PUSH2 0x306 DUP2 PUSH2 0x2C8 JUMP JUMPDEST DUP2 EQ PUSH2 0x310 JUMPI PUSH0 DUP1 REVERT JUMPDEST POP JUMP JUMPDEST PUSH0 DUP2 CALLDATALOAD SWAP1 POP PUSH2 0x321 DUP2 PUSH2 0x2FD JUMP JUMPDEST SWAP3 SWAP2 POP POP JUMP JUMPDEST PUSH0 PUSH1 0x20 DUP3 DUP5 SUB SLT ISZERO PUSH2 0x33C JUMPI PUSH2 0x33B PUSH2 0x2F9 JUMP JUMPDEST JUMPDEST PUSH0 PUSH2 0x349 DUP5 DUP3 DUP6 ADD PUSH2 0x313 JUMP JUMPDEST SWAP2 POP POP SWAP3 SWAP2 POP POP JUMP JUMPDEST PUSH0 DUP2 MLOAD SWAP1 POP PUSH2 0x360 DUP2 PUSH2 0x2FD JUMP JUMPDEST SWAP3 SWAP2 POP POP JUMP JUMPDEST PUSH0 PUSH1 0x20 DUP3 DUP5 SUB SLT ISZERO PUSH2 0x37B JUMPI PUSH2 0x37A PUSH2 0x2F9 JUMP JUMPDEST JUMPDEST PUSH0 PUSH2 0x388 DUP5 DUP3 DUP6 ADD PUSH2 0x352 JUMP JUMPDEST SWAP2 POP POP SWAP3 SWAP2 POP POP JUMP JUMPDEST PUSH0 PUSH10 0xFFFFFFFFFFFFFFFFFFFF DUP3 AND SWAP1 POP SWAP2 SWAP1 POP JUMP JUMPDEST PUSH2 0x3AF DUP2 PUSH2 0x391 JUMP JUMPDEST DUP2 EQ PUSH2 0x3B9 JUMPI PUSH0 DUP1 REVERT JUMPDEST POP JUMP JUMPDEST PUSH0 DUP2 MLOAD SWAP1 POP PUSH2 0x3CA DUP2 PUSH2 0x3A6 JUMP JUMPDEST SWAP3 SWAP2 POP POP JUMP JUMPDEST PUSH0 DUP2 SWAP1 POP SWAP2 SWAP1 POP JUMP JUMPDEST PUSH2 0x3E2 DUP2 PUSH2 0x3D0 JUMP JUMPDEST DUP2 EQ PUSH2 0x3EC JUMPI PUSH0 DUP1 REVERT JUMPDEST POP JUMP JUMPDEST PUSH0 DUP2 MLOAD SWAP1 POP PUSH2 0x3FD DUP2 PUSH2 0x3D9 JUMP JUMPDEST SWAP3 SWAP2 POP POP JUMP JUMPDEST PUSH0 DUP1 PUSH0 DUP1 PUSH0 PUSH1 0xA0 DUP7 DUP9 SUB SLT ISZERO PUSH2 0x41C JUMPI PUSH2 0x41B PUSH2 0x2F9 JUMP JUMPDEST JUMPDEST PUSH0 PUSH2 0x429 DUP9 DUP3 DUP10 ADD PUSH2 0x3BC JUMP JUMPDEST SWAP6 POP POP PUSH1 0x20 PUSH2 0x43A DUP9 DUP3 DUP10 ADD PUSH2 0x3EF JUMP JUMPDEST SWAP5 POP POP PUSH1 0x40 PUSH2 0x44B DUP9 DUP3 DUP10 ADD PUSH2 0x352 JUMP JUMPDEST SWAP4 POP POP PUSH1 0x60 PUSH2 0x45C DUP9 DUP3 DUP10 ADD PUSH2 0x352 JUMP JUMPDEST SWAP3 POP POP PUSH1 0x80 PUSH2 0x46D DUP9 DUP3 DUP10 ADD PUSH2 0x3BC JUMP JUMPDEST SWAP2 POP POP SWAP3 SWAP6 POP SWAP3 SWAP6 SWAP1 SWAP4 POP JUMP JUMPDEST PUSH32 0x4E487B7100000000000000000000000000000000000000000000000000000000 PUSH0 MSTORE PUSH1 0x11 PUSH1 0x4 MSTORE PUSH1 0x24 PUSH0 REVERT JUMPDEST PUSH0 PUSH2 0x4B1 DUP3 PUSH2 0x3D0 JUMP JUMPDEST SWAP2 POP PUSH2 0x4BC DUP4 PUSH2 0x3D0 JUMP JUMPDEST SWAP3 POP DUP3 DUP3 MUL PUSH2 0x4CA DUP2 PUSH2 0x3D0 JUMP JUMPDEST SWAP2 POP PUSH32 0x8000000000000000000000000000000000000000000000000000000000000000 DUP5 EQ PUSH0 DUP5 SLT AND ISZERO PUSH2 0x501 JUMPI PUSH2 0x500 PUSH2 0x47A JUMP JUMPDEST JUMPDEST DUP3 DUP3 SDIV DUP5 EQ DUP4 ISZERO OR PUSH2 0x516 JUMPI PUSH2 0x515 PUSH2 0x47A JUMP JUMPDEST JUMPDEST POP SWAP3 SWAP2 POP POP JUMP JUMPDEST PUSH0 DUP3 DUP3 MSTORE PUSH1 0x20 DUP3 ADD SWAP1 POP SWAP3 SWAP2 POP POP JUMP JUMPDEST PUSH32 0x6469646E27742073656E6420656E6F7567682045544800000000000000000000 PUSH0 DUP3 ADD MSTORE POP JUMP JUMPDEST PUSH0 PUSH2 0x561 PUSH1 0x16 DUP4 PUSH2 0x51D JUMP JUMPDEST SWAP2 POP PUSH2 0x56C DUP3 PUSH2 0x52D JUMP JUMPDEST PUSH1 0x20 DUP3 ADD SWAP1 POP SWAP2 SWAP1 POP JUMP JUMPDEST PUSH0 PUSH1 0x20 DUP3 ADD SWAP1 POP DUP2 DUP2 SUB PUSH0 DUP4 ADD MSTORE PUSH2 0x58E DUP2 PUSH2 0x555 JUMP JUMPDEST SWAP1 POP SWAP2 SWAP1 POP JUMP JUMPDEST PUSH0 PUSH2 0x59F DUP3 PUSH2 0x2C8 JUMP JUMPDEST SWAP2 POP PUSH2 0x5AA DUP4 PUSH2 0x2C8 JUMP JUMPDEST SWAP3 POP DUP3 DUP3 MUL PUSH2 0x5B8 DUP2 PUSH2 0x2C8 JUMP JUMPDEST SWAP2 POP DUP3 DUP3 DIV DUP5 EQ DUP4 ISZERO OR PUSH2 0x5CF JUMPI PUSH2 0x5CE PUSH2 0x47A JUMP JUMPDEST JUMPDEST POP SWAP3 SWAP2 POP POP JUMP JUMPDEST PUSH32 0x4E487B7100000000000000000000000000000000000000000000000000000000 PUSH0 MSTORE PUSH1 0x12 PUSH1 0x4 MSTORE PUSH1 0x24 PUSH0 REVERT JUMPDEST PUSH0 PUSH2 0x60D DUP3 PUSH2 0x2C8 JUMP JUMPDEST SWAP2 POP PUSH2 0x618 DUP4 PUSH2 0x2C8 JUMP JUMPDEST SWAP3 POP DUP3 PUSH2 0x628 JUMPI PUSH2 0x627 PUSH2 0x5D6 JUMP JUMPDEST JUMPDEST DUP3 DUP3 DIV SWAP1 POP SWAP3 SWAP2 POP POP JUMP INVALID LOG2 PUSH5 0x6970667358 0x22 SLT KECCAK256 SLOAD 0xDF PREVRANDAO SHL DUP9 PUSH32 0x71EA17B542A15EEA007EE06DC45E37398C0C11ABAE82CCBC0FF564736F6C6343 STOP ADDMOD AND STOP CALLER "
				},
				"gasEstimates": {
					"creation": {
						"codeDepositCost": "328200",
						"executionCost": "22471",
						"totalCost": "350671"
					},
					"external": {
						"fund()": "infinite",
						"getPrice()": "infinite",
						"getVersion()": "infinite",
						"getconversionRate(uint256)": "infinite",
						"minimumUsd()": "2402"
					}
				},
				"methodIdentifiers": {
					"fund()": "b60d4288",
					"getPrice()": "98d5fdca",
					"getVersion()": "0d8e6e2c",
					"getconversionRate(uint256)": "bf4c21eb",
					"minimumUsd()": "098de820"
				}
			},
			"storageLayout": {
				"storage": [
					{
						"astId": 51,
						"contract": "new workspace/FundMe.sol:FundMe",
						"label": "minimumUsd",
						"offset": 0,
						"slot": "0",
						"type": "t_uint256"
					}
				],
				"types": {
					"t_uint256": {
						"encoding": "inplace",
						"label": "uint256",
						"numberOfBytes": "32"
					}
				}
			},
			"userdoc": {
				"kind": "user",
				"methods": {},
				"version": 1
			}
		}
	}
}